{
  "contractName": "Campaign",
  "abi": [
    {
      "inputs": [
        {
          "internalType": "uint256",
          "name": "minimum",
          "type": "uint256"
        },
        {
          "internalType": "string",
          "name": "desc",
          "type": "string"
        },
        {
          "internalType": "uint256",
          "name": "val",
          "type": "uint256"
        },
        {
          "internalType": "address payable",
          "name": "reci",
          "type": "address"
        },
        {
          "internalType": "uint256",
          "name": "last",
          "type": "uint256"
        }
      ],
      "payable": false,
      "stateMutability": "nonpayable",
      "type": "constructor"
    },
    {
      "constant": true,
      "inputs": [
        {
          "internalType": "address",
          "name": "",
          "type": "address"
        }
      ],
      "name": "approvers",
      "outputs": [
        {
          "internalType": "bool",
          "name": "",
          "type": "bool"
        }
      ],
      "payable": false,
      "stateMutability": "view",
      "type": "function"
    },
    {
      "constant": true,
      "inputs": [],
      "name": "approversCount",
      "outputs": [
        {
          "internalType": "uint256",
          "name": "",
          "type": "uint256"
        }
      ],
      "payable": false,
      "stateMutability": "view",
      "type": "function"
    },
    {
      "constant": true,
      "inputs": [
        {
          "internalType": "address",
          "name": "",
          "type": "address"
        }
      ],
      "name": "contributions",
      "outputs": [
        {
          "internalType": "uint256",
          "name": "",
          "type": "uint256"
        }
      ],
      "payable": false,
      "stateMutability": "view",
      "type": "function"
    },
    {
      "constant": true,
      "inputs": [],
      "name": "description",
      "outputs": [
        {
          "internalType": "string",
          "name": "",
          "type": "string"
        }
      ],
      "payable": false,
      "stateMutability": "view",
      "type": "function"
    },
    {
      "constant": true,
      "inputs": [],
      "name": "minimumContribution",
      "outputs": [
        {
          "internalType": "uint256",
          "name": "",
          "type": "uint256"
        }
      ],
      "payable": false,
      "stateMutability": "view",
      "type": "function"
    },
    {
      "constant": false,
      "inputs": [],
      "name": "contribute",
      "outputs": [],
      "payable": true,
      "stateMutability": "payable",
      "type": "function"
    },
    {
      "constant": false,
      "inputs": [],
      "name": "getRefund",
      "outputs": [
        {
          "internalType": "bool",
          "name": "",
          "type": "bool"
        }
      ],
      "payable": false,
      "stateMutability": "nonpayable",
      "type": "function"
    },
    {
      "constant": false,
      "inputs": [],
      "name": "finalize",
      "outputs": [],
      "payable": false,
      "stateMutability": "nonpayable",
      "type": "function"
    }
  ],
  "bytecode": "0x6080604052600060085534801561001557600080fd5b50604051610aeb380380610aeb833981810160405260a081101561003857600080fd5b81019080805190602001909291908051604051939291908464010000000082111561006257600080fd5b8382019150602082018581111561007857600080fd5b825186600182028301116401000000008211171561009557600080fd5b8083526020830192505050908051906020019080838360005b838110156100c95780820151818401526020810190506100ae565b50505050905090810190601f1680156100f65780820380516001836020036101000a031916815260200191505b5060405260200180519060200190929190805190602001909291908051906020019092919050505084600381905550836000908051906020019061013b929190610195565b508260018190555081600260006101000a81548173ffffffffffffffffffffffffffffffffffffffff021916908373ffffffffffffffffffffffffffffffffffffffff16021790555080600781905550505050505061023a565b828054600181600116156101000203166002900490600052602060002090601f016020900481019282601f106101d657805160ff1916838001178555610204565b82800160010185558215610204579182015b828111156102035782518255916020019190600101906101e8565b5b5090506102119190610215565b5090565b61023791905b8082111561023357600081600090555060010161021b565b5090565b90565b6108a2806102496000396000f3fe60806040526004361061007b5760003560e01c806382fde0931161004e57806382fde093146101f5578063937e09b114610220578063b2d5ae441461024b578063d7bb99ba1461027a5761007b565b80630a1443911461008057806342e94c90146100e95780634bb278f31461014e5780637284e41614610165575b600080fd5b34801561008c57600080fd5b506100cf600480360360208110156100a357600080fd5b81019080803573ffffffffffffffffffffffffffffffffffffffff169060200190929190505050610284565b604051808215151515815260200191505060405180910390f35b3480156100f557600080fd5b506101386004803603602081101561010c57600080fd5b81019080803573ffffffffffffffffffffffffffffffffffffffff1690602001909291905050506102a4565b6040518082815260200191505060405180910390f35b34801561015a57600080fd5b506101636102bc565b005b34801561017157600080fd5b5061017a6103ae565b6040518080602001828103825283818151815260200191508051906020019080838360005b838110156101ba57808201518184015260208101905061019f565b50505050905090810190601f1680156101e75780820380516001836020036101000a031916815260200191505b509250505060405180910390f35b34801561020157600080fd5b5061020a61044c565b6040518082815260200191505060405180910390f35b34801561022c57600080fd5b50610235610452565b6040518082815260200191505060405180910390f35b34801561025757600080fd5b50610260610458565b604051808215151515815260200191505060405180910390f35b61028261060b565b005b60046020528060005260406000206000915054906101000a900460ff1681565b60056020528060005260406000206000915090505481565b60015460085410610352576001600260146101000a81548160ff021916908315150217905550600260009054906101000a900473ffffffffffffffffffffffffffffffffffffffff1673ffffffffffffffffffffffffffffffffffffffff166108fc6008549081150290604051600060405180830381858888f1935050505015801561034c573d6000803e3d6000fd5b506103ac565b600180146103ab576040517f08c379a000000000000000000000000000000000000000000000000000000000815260040180806020018281038252602281526020018061084c6022913960400191505060405180910390fd5b5b565b60008054600181600116156101000203166002900480601f0160208091040260200160405190810160405280929190818152602001828054600181600116156101000203166002900480156104445780601f1061041957610100808354040283529160200191610444565b820191906000526020600020905b81548152906001019060200180831161042757829003601f168201915b505050505081565b60065481565b60035481565b600080600560003373ffffffffffffffffffffffffffffffffffffffff1673ffffffffffffffffffffffffffffffffffffffff16815260200190815260200160002054116104f1576040517f08c379a00000000000000000000000000000000000000000000000000000000081526004018080602001828103825260298152602001806108236029913960400191505060405180910390fd5b6000600560003373ffffffffffffffffffffffffffffffffffffffff1673ffffffffffffffffffffffffffffffffffffffff1681526020019081526020016000205490506000600560003373ffffffffffffffffffffffffffffffffffffffff1673ffffffffffffffffffffffffffffffffffffffff168152602001908152602001600020819055503373ffffffffffffffffffffffffffffffffffffffff166108fc829081150290604051600060405180830381858888f19350505050156105be576001915050610608565b80600560003373ffffffffffffffffffffffffffffffffffffffff1673ffffffffffffffffffffffffffffffffffffffff1681526020019081526020016000208190555060009150505b90565b6003543411610665576040517f08c379a00000000000000000000000000000000000000000000000000000000081526004018080602001828103825260288152602001806107fb6028913960400191505060405180910390fd5b600460003373ffffffffffffffffffffffffffffffffffffffff1673ffffffffffffffffffffffffffffffffffffffff16815260200190815260200160002060009054906101000a900460ff16156107415734600560003373ffffffffffffffffffffffffffffffffffffffff1673ffffffffffffffffffffffffffffffffffffffff1681526020019081526020016000205401600560003373ffffffffffffffffffffffffffffffffffffffff1673ffffffffffffffffffffffffffffffffffffffff168152602001908152602001600020819055506107f0565b6001600460003373ffffffffffffffffffffffffffffffffffffffff1673ffffffffffffffffffffffffffffffffffffffff16815260200190815260200160002060006101000a81548160ff02191690831515021790555034600560003373ffffffffffffffffffffffffffffffffffffffff1673ffffffffffffffffffffffffffffffffffffffff168152602001908152602001600020819055506006600081548092919060010191905055505b6107f86102bc565b56fe596f7520646f206e6f74206d65657420746865206d696e696d756d20636f6e747269627574696f6e596f752068617665203020636f6e747269627574696f6e7320746f20746869732063616d706169676e446f6573206e6f7420686176652073756666696369656e742066756e647320796574a265627a7a72315820362249100d9483c476eab9794a1a90e7dadd659102d1dbe800440a2ef4dbc19a64736f6c63430005100032",
  "source": "pragma solidity ^0.5.8;\n//anyone should be able to make contract using this factory  and he becomes manager\n\n// this.projectData[index].contract.methods.getRefund().send({\n//     from: this.account,  , this this.account would be the sender of the message\n//   })\n//sending money is done to the contract address.    The frontend will have the address for it.\n\ncontract Campaign {\n    //actually manager and recipient are the same here.\n    string public description;\n    uint value;\n    address payable recipient;\n    bool complete;\n    uint public minimumContribution;\n    mapping(address => bool) public approvers;\n    mapping(address => uint) public contributions;\n    uint public approversCount;\n    uint deadline;\n    uint total=0;\n    uint curtime;\n    modifier restricted(){\n        require(msg.sender == recipient,\"not equal\");\n        _;  //super imp\n    }\n\n\n    constructor (uint minimum,string memory desc,uint val,address payable reci,uint last) public {\n        minimumContribution = minimum;\n        description = desc;\n        value = val;\n        recipient = reci;\n        deadline = last;\n    }\n\n    function contribute() payable public {\n        require(msg.value > minimumContribution,\"You do not meet the minimum contribution\");\n        //this contract has automatically received the intended amount from where it was called.\n        if(approvers[msg.sender]){\n            contributions[msg.sender] = contributions[msg.sender] + msg.value;\n        }\n        else{\n            approvers[msg.sender] = true;\n            contributions[msg.sender] = msg.value;\n            approversCount++;\n        }\n        finalize(); //check after each contribution\n    }\n\n    //This function is called by the person who earlier contributed to this campaign\n    function getRefund() public returns (bool) {\n        require(contributions[msg.sender] > 0 ,\"You have 0 contributions to this campaign\");\n        uint refund = contributions[msg.sender];    //whosoever called this function using from: attribute\n        contributions[msg.sender] = 0;\n\n        if(msg.sender.send(refund) ){\n            return true;\n        }\n        else{   //if the transaction failed for some reason\n            contributions[msg.sender] = refund;\n            return false;\n        }\n    }\n\n    function finalize() public{\n\n        if(total>=value){\n            complete = true;\n            //goes from contract to recipient\n            recipient.transfer(total);\n            return;\n        }\n        else{\n            require(1==1,\"Does not have sufficient funds yet\");\n            //if time exceeded\n        }\n    }\n    \n\n\n}\n\n",
  "sourcePath": "E:\\Repos\\Lending\\contracts\\Campaign.sol",
  "compiler": {
    "name": "solc",
    "version": "0.5.16+commit.9c3226ce.Emscripten.clang"
  },
  "schemaVersion": "3.0.21",
  "updatedAt": "2020-01-18T10:51:16.667Z",
  "networkType": "ethereum",
  "devdoc": {
    "methods": {}
  },
  "userdoc": {
    "methods": {}
  }
}